:10000000001000100D010000D5000000D900000014
:1000100000000000000000000000000000000000E0
:10002000000000000000000000000000DD000000F3
:100030000000000000000000E100000001030000DB
:100040005101000051010000510100005101000068
:100050005101000051010000510100005101000058
:100060005101000051010000510100005101000048
:100070005101000051010000510100005101000038
:100080005101000051010000510100005101000028
:1000900051010000510400000000000000000000B9
:1000A000510100005101000051010000000000005A
:1000B00051010000510100005101000051010000F8
:1000C00034070000000000100800000008000010C5
:1000D0005000000000B5FEE700B5FEE700B5FEE702
:1000E00000B5FEE700B5FEE710B5002302E01C589E
:1000F000043310C19342FAD310BD10B5031C002283
:1001000000E004C31C1A8C42FBD310BD38B50D4C63
:100110000D4D05E020686168A2680C34FFF7E4FF2C
:10012000AC42F7D305E0206861680834FFF7E5FFCB
:1001300000E0064DAC42F6D300F050FA00F096FA1B
:10014000FEE7C046C0000000CC000000D400000064
:1001500000B5FEE7FFFFFFFFFFFFFFFFFFFFFFFF11
:10016000FFFFFFFFFFFFFFFFFFFFFFFFFFFFFFFF9F
:10017000FFFFFFFFFFFFFFFFFFFFFFFFFFFFFFFF8F
:10018000FFFFFFFFFFFFFFFFFFFFFFFFFFFFFFFF7F
:10019000FFFFFFFFFFFFFFFFFFFFFFFFFFFFFFFF6F
:1001A000FFFFFFFFFFFFFFFFFFFFFFFFFFFFFFFF5F
:1001B000FFFFFFFFFFFFFFFFFFFFFFFFFFFFFFFF4F
:1001C000FFFFFFFFFFFFFFFFFFFFFFFFFFFFFFFF3F
:1001D000FFFFFFFFFFFFFFFFFFFFFFFFFFFFFFFF2F
:1001E000FFFFFFFFFFFFFFFFFFFFFFFFFFFFFFFF1F
:1001F000FFFFFFFFFFFFFFFFFFFFFFFFFFFFFFFF0F
:10020000FFFFFFFFFFFFFFFFFFFFFFFFFFFFFFFFFE
:10021000FFFFFFFFFFFFFFFFFFFFFFFFFFFFFFFFEE
:10022000FFFFFFFFFFFFFFFFFFFFFFFFFFFFFFFFDE
:10023000FFFFFFFFFFFFFFFFFFFFFFFFFFFFFFFFCE
:10024000FFFFFFFFFFFFFFFFFFFFFFFFFFFFFFFFBE
:10025000FFFFFFFFFFFFFFFFFFFFFFFFFFFFFFFFAE
:10026000FFFFFFFFFFFFFFFFFFFFFFFFFFFFFFFF9E
:10027000FFFFFFFFFFFFFFFFFFFFFFFFFFFFFFFF8E
:10028000FFFFFFFFFFFFFFFFFFFFFFFFFFFFFFFF7E
:10029000FFFFFFFFFFFFFFFFFFFFFFFFFFFFFFFF6E
:1002A000FFFFFFFFFFFFFFFFFFFFFFFFFFFFFFFF5E
:1002B000FFFFFFFFFFFFFFFFFFFFFFFFFFFFFFFF4E
:1002C000FFFFFFFFFFFFFFFFFFFFFFFFFFFFFFFF3E
:1002D000FFFFFFFFFFFFFFFFFFFFFFFFFFFFFFFF2E
:1002E000FFFFFFFFFFFFFFFFFFFFFFFFFFFFFFFF1E
:1002F000FFFFFFFFFFFFFFFFFFFFFFFFFFFFFFFF0E
:1003000010B50A4B1A6801321A60094B1A68632A41
:1003100008D9084AA021C90588588024604088501F
:1003200000221A601A6801321A6010BD0C00001019
:1003300008000010FC3F000010B5A0238021DB0561
:1003400009025A58802002435A50064A9C582043BA
:1003500098505C58082004435C50995808439850C2
:1003600010BDC046FC3F000010B50E4B8021DA6F77
:100370000A43DA670C4B02211A6E0A431A660B4BCA
:100380000122586F1043586709485862094898611C
:100390005C698020C000204358610520D860196145
:1003A0005A6010BD048004400040044000C000407A
:1003B000E8FD0000F47E000070B586B000F00EF994
:1003C0001A4BFA211868890000F058F9184B421EA0
:1003D0009A420ED8174B184A02385860106AC0214A
:1003E0000002000A09060143116200229A600722F6
:1003F0001A60FFF7A1FFFFF7B7FF104800F076F88B
:100400000F491522684600F035F96846152100F0BD
:10041000D3F80C4D06260C4C6E6021680B4800F09A
:10042000CBF80023236007236B60F4E7040000107F
:10043000FFFFFF0010E000E000ED00E0127A000096
:100440001C07000000800040100000101400001085
:1004500010B5214B9A681207520F032A17D15A6917
:100460009E21D2B2114003D01C490A601B6831E0C2
:10047000D0072FD51A4A10681C681A4BE4B21C54D6
:10048000013010601368402B24D1116022E0022A51
:100490000DD1134A11681868124BC0B2585401317B
:1004A00011601368402B15D10023136012E0062A57
:1004B00006D10A4B8022196852000A431A6009E0EB
:1004C000012A07D1596920231940074B01D01A701E
:1004D00000E0197010BDC0460080004054000010BC
:1004E00010000010140000100000001070B5274A22
:1004F00001231370264A00211160264A80218903B6
:10050000D167254A07251168061CA94311601168A7
:10051000224C19431160224A1168A94311601168E5
:10052000194311601F4A8021D06F49010143D167EF
:100530001D4A13608323E36011681C4B1C4A9B6FA8
:100540001068584300F09AF8311C000900F096F842
:10055000030A6360C0B203232060E360A56063699F
:10056000602362691A40602AFBD101E0116801E052
:100570000A4A012361691942F8D10E4B8022920385
:100580001A60064B05225A6070BDC046000000107C
:100590001000001004E100E0A4400440008000408E
:1005A000A840044004800440988004400080044037
:1005B0000400001000E100E030B5074A202307E006
:1005C00054691C42FCD00578034C01302560013988
:1005D0000029F5D130BDC0460080004010B51D4B4C
:1005E0008E229200995820208143995000221A624D
:1005F000C822C046013A002AFBD101211A6459647D
:100600005A645964586C134A0842FBD02321916004
:100610008E21890050588024A04350500120DC686E
:100620000C4A01210442FAD00320106700205167D0
:1006300050675167586F01220842FBD0054B0649AD
:100640009A67064BD967064B1A60064B1A60064B31
:100650001A6010BD008004405F0001000480044067
:1006600094800440988004409C80044008B5FFF7C3
:10067000A3FE08BD08B500F03BF808BD002931D045
:100680000122D207030901E0090112099942FBD9AD
:10069000430801E0490052089942FBD900E04908AB
:1006A000401A07D35241FAD3014610467047490811
:1006B0004018F7D29218FAD34018014610467047F6
:1006C000CB0F00D04942021000D54042534008B53C
:1006D000FFF7D4FF0CBC521000D34042002A00D5D3
:1006E00049421847F446002000F001F8604770477F
:1006F0008446830708D18B0706D1131F04D304C98E
:1007000004C0043BFBD21A1D524205D0891A801A3C
:100710008B5C83540132FBD1604670472D2D206CD9
:10072000696C272041524D20626F6F7465643A0AEC
:0407300000FFFFFFC8
:0807340001000000006CDC0272
:040000030000010DEB
:00000001FF
