:10000000001000100D010000D5000000D900000014
:1000100000000000000000000000000000000000E0
:10002000000000000000000000000000DD000000F3
:100030000000000000000000E100000001030000DB
:100040005101000051010000510100005101000068
:100050005101000051010000510100005101000058
:100060005101000051010000510100005101000048
:100070005101000051010000510100005101000038
:100080005101000051010000510100005101000028
:1000900051010000490500000000000000000000C0
:1000A000510100005101000051010000000000005A
:1000B00051010000510100005101000051010000F8
:1000C000E0070000000000100C0000000C00001011
:1000D0005000000000B5FEE700B5FEE700B5FEE702
:1000E00000B5FEE700B5FEE710B5002302E01C589E
:1000F000043310C19342FAD310BD10B5031C002283
:1001000000E004C31C1A8C42FBD310BD38B50D4C63
:100110000D4D05E020686168A2680C34FFF7E4FF2C
:10012000AC42F7D305E0206861680834FFF7E5FFCB
:1001300000E0064DAC42F6D300F0CCFA00F012FB22
:10014000FEE7C046C0000000CC000000D400000064
:1001500000B5FEE7FFFFFFFFFFFFFFFFFFFFFFFF11
:10016000FFFFFFFFFFFFFFFFFFFFFFFFFFFFFFFF9F
:10017000FFFFFFFFFFFFFFFFFFFFFFFFFFFFFFFF8F
:10018000FFFFFFFFFFFFFFFFFFFFFFFFFFFFFFFF7F
:10019000FFFFFFFFFFFFFFFFFFFFFFFFFFFFFFFF6F
:1001A000FFFFFFFFFFFFFFFFFFFFFFFFFFFFFFFF5F
:1001B000FFFFFFFFFFFFFFFFFFFFFFFFFFFFFFFF4F
:1001C000FFFFFFFFFFFFFFFFFFFFFFFFFFFFFFFF3F
:1001D000FFFFFFFFFFFFFFFFFFFFFFFFFFFFFFFF2F
:1001E000FFFFFFFFFFFFFFFFFFFFFFFFFFFFFFFF1F
:1001F000FFFFFFFFFFFFFFFFFFFFFFFFFFFFFFFF0F
:10020000FFFFFFFFFFFFFFFFFFFFFFFFFFFFFFFFFE
:10021000FFFFFFFFFFFFFFFFFFFFFFFFFFFFFFFFEE
:10022000FFFFFFFFFFFFFFFFFFFFFFFFFFFFFFFFDE
:10023000FFFFFFFFFFFFFFFFFFFFFFFFFFFFFFFFCE
:10024000FFFFFFFFFFFFFFFFFFFFFFFFFFFFFFFFBE
:10025000FFFFFFFFFFFFFFFFFFFFFFFFFFFFFFFFAE
:10026000FFFFFFFFFFFFFFFFFFFFFFFFFFFFFFFF9E
:10027000FFFFFFFFFFFFFFFFFFFFFFFFFFFFFFFF8E
:10028000FFFFFFFFFFFFFFFFFFFFFFFFFFFFFFFF7E
:10029000FFFFFFFFFFFFFFFFFFFFFFFFFFFFFFFF6E
:1002A000FFFFFFFFFFFFFFFFFFFFFFFFFFFFFFFF5E
:1002B000FFFFFFFFFFFFFFFFFFFFFFFFFFFFFFFF4E
:1002C000FFFFFFFFFFFFFFFFFFFFFFFFFFFFFFFF3E
:1002D000FFFFFFFFFFFFFFFFFFFFFFFFFFFFFFFF2E
:1002E000FFFFFFFFFFFFFFFFFFFFFFFFFFFFFFFF1E
:1002F000FFFFFFFFFFFFFFFFFFFFFFFFFFFFFFFF0E
:1003000010B50A4B1A6801321A60094B1A68632A41
:1003100008D9084AA021C90588588024604088501F
:1003200000221A601A6801321A6010BD1000001015
:100330000C000010FC3F000010B5A0238021DB055D
:1003400009025A58802002435A50064A9C582043BA
:1003500098505C58082004435C50995808439850C2
:1003600010BDC046FC3F0000164B8021DA6F032011
:100370000A43DA67144B02211A6E0A431A665A6E50
:100380000A435A669A6E02439A66104B04205A6FCB
:1003900002435A670E4A1068586210684008986114
:1003A00010684008D861126852081A6258698022A1
:1003B000D20002435A610522DA60012219615A60B3
:1003C0007047C046048004400040044000C0004024
:1003D00000000010064B074A5843074BC018074B54
:1003E0001860196851621B685B0893617047C046CA
:1003F0003CF6FFFF00C00040E8FD000000000010D8
:10040000024B034A9A61DA617047C04600C000405F
:10041000E8FD0000024B00229A61DA617047C04695
:1004200000C0004070B500F055F93E4BFA21186845
:10043000890000F09BF93C4B421E9A420ED83B4B80
:100440003B4A02385860106AC0210002000A0906BF
:100450000143116200229A6007221A60FFF76CFFC5
:10046000FFF782FF334800F0BDF8334D334B1B6874
:10047000002BFBD050E0324E062373602B78F82B14
:100480002AD002D8902B3DD104E0FA2B13D0FC2BBC
:1004900038D129E02368022B3CD96B78281C2B70BB
:1004A000012100F005F92878FFF794FF6B782B7095
:1004B0002368033B0EE0234BA022D205D15808202D
:1004C0004140D150281C012100F0F2F8FFF798FFBD
:1004D0002368013B23601DE01A4BA022D205D158AE
:1004E00008204140D15008E0164BA022D205D15837
:1004F00008208143D150FFF78DFF281C012100F017
:10050000D7F8E5E7281C012100F0D2F80B4B1A6858
:10051000013A1A6007237360084C2368002BA5D0AA
:10052000A9E7C04608000010FFFFFF0010E000E050
:1005300000ED00E0127A0000180000101400001016
:1005400000800040FC3F000010B5214B9A68120764
:10055000520F032A17D15A699E21D2B2114003D0FB
:100560001C490A601B6831E0D0072FD51A4A106871
:100570001C681A4BE4B21C54013010601368402B05
:1005800024D1116022E0022A0DD1134A11681868A3
:10059000124BC0B25854013111601368402B15D171
:1005A0000023136012E0062A06D10A4B8022196844
:1005B00052000A431A6009E0012A07D15969202331
:1005C0001940074B01D01A7000E0197010BDC046E9
:1005D00000800040580000101400001018000010A7
:1005E0000400001070B5274A01231370264A002129
:1005F0001160264A80218903D167254A07251168A1
:10060000061CA94311601168224C19431160224A4B
:100610001168A94311601168194311601F4A8021B4
:10062000D06F49010143D1671D4A13608323E36002
:1006300011681C4B1C4A9B6F1068584300F096F8D9
:10064000311C000900F092F8030A6360C0B2032372
:100650002060E360A5606369602362691A40602AD4
:10066000FBD101E0116801E00A4A012361691942E6
:10067000F8D10E4B802292031A60064B05225A6075
:1006800070BDC046040000101400001004E100E03A
:10069000A440044000800040A8400440048004407E
:1006A00098800440008004400800001000E100E051
:1006B00030B5074A202307E054691C42FCD0057876
:1006C000034C0130256001390029F5D130BDC04609
:1006D0000080004010B51D4B8E22920099582020BA
:1006E0008143995000221A62C822C046013A002A6A
:1006F000FBD101211A6459645A645964586C134A35
:100700000842FBD0232191608E218900505880241B
:10071000A04350500120DC680C4A01210442FAD069
:10072000032010670020516750675167586F0122FE
:100730000842FBD0054B06499A67064BD967064B22
:100740001A60064B1A60064B1A6010BD0080044008
:100750005F000100048004409480044098800440BD
:100760009C80044008B5FFF75DFE08BD002931D02C
:100770000122D207030901E0090112099942FBD9BC
:10078000430801E0490052089942FBD900E04908BA
:10079000401A07D35241FAD3014610467047490820
:1007A0004018F7D29218FAD3401801461046704705
:1007B000CB0F00D04942021000D54042534008B54B
:1007C000FFF7D4FF0CBC521000D34042002A00D5E2
:1007D00049421847F446002000F001F8604770478E
:0C07E000E8FD000001000000006CDC02DD
:040000030000010DEB
:00000001FF
