:10000000001000100D010000D5000000D900000014
:1000100000000000000000000000000000000000E0
:10002000000000000000000000000000DD000000F3
:100030000000000000000000E100000001030000DB
:100040005101000051010000510100005101000068
:100050005101000051010000510100005101000058
:100060005101000051010000510100005101000048
:100070005101000051010000510100005101000038
:100080005101000051010000510100005101000028
:10009000510100006D05000000000000000000009C
:1000A000510100005101000051010000000000005A
:1000B00051010000510100005101000051010000F8
:1000C0006808000000000010080000000800001090
:1000D0005C00000000B5FEE700B5FEE700B5FEE7F6
:1000E00000B5FEE700B5FEE710B5002302E01C589E
:1000F000043310C19342FAD310BD10B5031C002283
:1001000000E004C31C1A8C42FBD310BD38B50D4C63
:100110000D4D05E020686168A2680C34FFF7E4FF2C
:10012000AC42F7D305E0206861680834FFF7E5FFCB
:1001300000E0064DAC42F6D300F0DEFA00F024FBFE
:10014000FEE7C046C0000000CC000000D400000064
:1001500000B5FEE7FFFFFFFFFFFFFFFFFFFFFFFF11
:10016000FFFFFFFFFFFFFFFFFFFFFFFFFFFFFFFF9F
:10017000FFFFFFFFFFFFFFFFFFFFFFFFFFFFFFFF8F
:10018000FFFFFFFFFFFFFFFFFFFFFFFFFFFFFFFF7F
:10019000FFFFFFFFFFFFFFFFFFFFFFFFFFFFFFFF6F
:1001A000FFFFFFFFFFFFFFFFFFFFFFFFFFFFFFFF5F
:1001B000FFFFFFFFFFFFFFFFFFFFFFFFFFFFFFFF4F
:1001C000FFFFFFFFFFFFFFFFFFFFFFFFFFFFFFFF3F
:1001D000FFFFFFFFFFFFFFFFFFFFFFFFFFFFFFFF2F
:1001E000FFFFFFFFFFFFFFFFFFFFFFFFFFFFFFFF1F
:1001F000FFFFFFFFFFFFFFFFFFFFFFFFFFFFFFFF0F
:10020000FFFFFFFFFFFFFFFFFFFFFFFFFFFFFFFFFE
:10021000FFFFFFFFFFFFFFFFFFFFFFFFFFFFFFFFEE
:10022000FFFFFFFFFFFFFFFFFFFFFFFFFFFFFFFFDE
:10023000FFFFFFFFFFFFFFFFFFFFFFFFFFFFFFFFCE
:10024000FFFFFFFFFFFFFFFFFFFFFFFFFFFFFFFFBE
:10025000FFFFFFFFFFFFFFFFFFFFFFFFFFFFFFFFAE
:10026000FFFFFFFFFFFFFFFFFFFFFFFFFFFFFFFF9E
:10027000FFFFFFFFFFFFFFFFFFFFFFFFFFFFFFFF8E
:10028000FFFFFFFFFFFFFFFFFFFFFFFFFFFFFFFF7E
:10029000FFFFFFFFFFFFFFFFFFFFFFFFFFFFFFFF6E
:1002A000FFFFFFFFFFFFFFFFFFFFFFFFFFFFFFFF5E
:1002B000FFFFFFFFFFFFFFFFFFFFFFFFFFFFFFFF4E
:1002C000FFFFFFFFFFFFFFFFFFFFFFFFFFFFFFFF3E
:1002D000FFFFFFFFFFFFFFFFFFFFFFFFFFFFFFFF2E
:1002E000FFFFFFFFFFFFFFFFFFFFFFFFFFFFFFFF1E
:1002F000FFFFFFFFFFFFFFFFFFFFFFFFFFFFFFFF0E
:1003000010B51B4B1A6801321A601A4B1A68013279
:100310001A601B68052B29D9174B18481A881849E9
:100320005200125A8A61174A14886400245ACC6118
:10033000154C24886400205A08621988302903D893
:100340001988013189B219801388302B03D813889A
:1003500001339BB213800C4B1A88302A03D81A88B9
:10036000013292B21A80034B00221A6010BDC046BF
:10037000100000100C00001018000010040800000D
:1003800000C00040080000100A00001010B5A023B3
:100390008021DB0509025A58802002435A50064A40
:1003A0009C58204398505C58082004435C5099584E
:1003B0000843985010BDC046FC3F0000124B8021FE
:1003C000DA6F03200A43DA67104B0222196E1143D9
:1003D0001966596E11435966996E014399660C4B23
:1003E0000720596F014359670A4959620A499961BF
:1003F000D96119625869C021C900014359610121BD
:10040000D9601A615960704704800440004004407C
:1004100000C00040FFFF0000FF7F000000B515494D
:100420000623154A4B601368002B05D1134803803F
:100430001348038013480380136801331360136863
:10044000182B02D10D4B00221A800B4B1A68302A50
:1004500002D10B4A002010801A68482A02D1094AAA
:10046000002010801A68602A01D100221A60072338
:100470004B6000BD00800040140000101800001008
:10048000080000100A00001070B500F035F92D4B7F
:10049000FA211868890000F07BF92B4B421E9A4222
:1004A0000ED82A4B2A4A02385860106AC02100022E
:1004B000000A09060143116200229A6007221A60AD
:1004C000FFF764FFFFF77AFF224800F09DF8224E05
:1004D000224C32E00623224D73602B78FA2B04D095
:1004E000FC2B16D0F82B1ED10EE01E4BA022D205FD
:1004F000D15808204140D150281C012100F0EAF8D1
:10050000194B00221A6012E0FFF788FF6B782B70FE
:100510000DE0144BA022D205D15808208143D150C0
:10052000114B00221A60281C012100F0D3F8236827
:100530000722013B2360084B5A602368002BFCD044
:10054000C8E7C04604000010FFFFFF0010E000E015
:1005500000ED00E0127A0000008000401C00001056
:1005600020000010FC3F00001400001010B5214BCB
:100570009A681207520F032A17D15A699E21D2B2E4
:10058000114003D01C490A601B6831E0D0072FD509
:100590001A4A10681C681A4BE4B21C5401301060EF
:1005A0001368402B24D1116022E0022A0DD1134A96
:1005B00011681868124BC0B25854013111601368A9
:1005C000402B15D10023136012E0062A06D10A4BF6
:1005D0008022196852000A431A6009E0012A07D1F3
:1005E000596920231940074B01D01A7000E0197097
:1005F00010BDC04600800040600000101C000010CC
:10060000200000100000001070B5274A012313706D
:10061000264A00211160264A80218903D167254A94
:1006200007251168061CA94311601168224C194363
:100630001160224A1168A9431160116819431160C1
:100640001F4A8021D06F49010143D1671D4A1360C1
:100650008323E36011681C4B1C4A9B6F106858434E
:1006600000F096F8311C000900F092F8030A63606C
:10067000C0B203232060E360A56063696023626900
:100680001A40602AFBD101E0116801E00A4A012307
:1006900061691942F8D10E4B802292031A60064B11
:1006A00005225A6070BDC046000000101C000010FA
:1006B00004E100E0A440044000800040A840044061
:1006C000048004409880044000800440040000102E
:1006D00000E100E030B5074A202307E054691C42DE
:1006E000FCD00578034C0130256001390029F5D193
:1006F00030BDC0460080004010B51D4B8E229200D8
:10070000995820208143995000221A62C822C0467D
:10071000013A002AFBD101211A6459645A645964D0
:10072000586C134A0842FBD0232191608E21890026
:1007300050588024A04350500120DC680C4A01210D
:100740000442FAD0032010670020516750675167B8
:10075000586F01220842FBD0054B06499A67064BA9
:10076000D967064B1A60064B1A60064B1A6010BD1B
:10077000008004405F000100048004409480044035
:10078000988004409C80044008B5FFF77DFE08BDBA
:10079000002931D00122D207030901E00901120921
:1007A0009942FBD9430801E0490052089942FBD91C
:1007B00000E04908401A07D35241FAD301461046D7
:1007C000704749084018F7D29218FAD340180146EA
:1007D00010467047CB0F00D04942021000D540426E
:1007E000534008B5FFF7D4FF0CBC521000D3404271
:1007F000002A00D549421847F446002000F001F8CD
:1008000060477047FFFF81DA04B5FF7F406D825A71
:10081000FF3FA036412D0020501BA0160010A80D50
:10082000500BFF07D306A80500046A03D402000298
:10083000B5016A010001DA00B5007F006C005A00C2
:10084000400036002D0020001B00170010000D0096
:100850000B0008000700060004000300030002006C
:0808600001000100010000008D
:0808680001000000006CDC023D
:040000030000010DEB
:00000001FF
