:10000000001000100D010000D5000000D900000014
:1000100000000000000000000000000000000000E0
:10002000000000000000000000000000DD000000F3
:100030000000000000000000E100000001030000DB
:100040005101000051010000510100005101000068
:100050005101000051010000510100005101000058
:100060005101000051010000510100005101000048
:100070005101000051010000510100005101000038
:100080005101000051010000510100005101000028
:1000900051010000390600000000000000000000CF
:1000A000510100005101000051010000000000005A
:1000B00051010000510100005101000051010000F8
:1000C000F40A0000000000100C0000000C000010FA
:1000D0005800000000B5FEE700B5FEE700B5FEE7FA
:1000E00000B5FEE700B5FEE710B5002302E01C589E
:1000F000043310C19342FAD310BD10B5031C002283
:1001000000E004C31C1A8C42FBD310BD38B50D4C63
:100110000D4D05E020686168A2680C34FFF7E4FF2C
:10012000AC42F7D305E0206861680834FFF7E5FFCB
:1001300000E0064DAC42F6D300F044FB00F08AFB31
:10014000FEE7C046C0000000CC000000D400000064
:1001500000B5FEE7FFFFFFFFFFFFFFFFFFFFFFFF11
:10016000FFFFFFFFFFFFFFFFFFFFFFFFFFFFFFFF9F
:10017000FFFFFFFFFFFFFFFFFFFFFFFFFFFFFFFF8F
:10018000FFFFFFFFFFFFFFFFFFFFFFFFFFFFFFFF7F
:10019000FFFFFFFFFFFFFFFFFFFFFFFFFFFFFFFF6F
:1001A000FFFFFFFFFFFFFFFFFFFFFFFFFFFFFFFF5F
:1001B000FFFFFFFFFFFFFFFFFFFFFFFFFFFFFFFF4F
:1001C000FFFFFFFFFFFFFFFFFFFFFFFFFFFFFFFF3F
:1001D000FFFFFFFFFFFFFFFFFFFFFFFFFFFFFFFF2F
:1001E000FFFFFFFFFFFFFFFFFFFFFFFFFFFFFFFF1F
:1001F000FFFFFFFFFFFFFFFFFFFFFFFFFFFFFFFF0F
:10020000FFFFFFFFFFFFFFFFFFFFFFFFFFFFFFFFFE
:10021000FFFFFFFFFFFFFFFFFFFFFFFFFFFFFFFFEE
:10022000FFFFFFFFFFFFFFFFFFFFFFFFFFFFFFFFDE
:10023000FFFFFFFFFFFFFFFFFFFFFFFFFFFFFFFFCE
:10024000FFFFFFFFFFFFFFFFFFFFFFFFFFFFFFFFBE
:10025000FFFFFFFFFFFFFFFFFFFFFFFFFFFFFFFFAE
:10026000FFFFFFFFFFFFFFFFFFFFFFFFFFFFFFFF9E
:10027000FFFFFFFFFFFFFFFFFFFFFFFFFFFFFFFF8E
:10028000FFFFFFFFFFFFFFFFFFFFFFFFFFFFFFFF7E
:10029000FFFFFFFFFFFFFFFFFFFFFFFFFFFFFFFF6E
:1002A000FFFFFFFFFFFFFFFFFFFFFFFFFFFFFFFF5E
:1002B000FFFFFFFFFFFFFFFFFFFFFFFFFFFFFFFF4E
:1002C000FFFFFFFFFFFFFFFFFFFFFFFFFFFFFFFF3E
:1002D000FFFFFFFFFFFFFFFFFFFFFFFFFFFFFFFF2E
:1002E000FFFFFFFFFFFFFFFFFFFFFFFFFFFFFFFF1E
:1002F000FFFFFFFFFFFFFFFFFFFFFFFFFFFFFFFF0E
:1003000038B52B4B1A6801321A602A4B1A68632AD7
:1003100008D9294AA021C9058858802460408850FE
:1003200000221A601A6801321A60244B1B680F2BD6
:1003300032D9234CA369002B0AD0A06900F0D3FB6B
:100340001A4B194A00F0C4FA00F07EFBA06100E0ED
:10035000A361E3691A4D002B0AD0E86900F0C3FBE2
:10036000124B114A00F0B4FA00F06EFBE86100E0B5
:10037000EB61236A124D002B0AD0286A00F0B3FB10
:100380000A4B094A00F0A4FA00F05EFB286200E084
:100390002B620A4B00221A60084B1A6801321A605D
:1003A00038BDC046C046C0465A057F669EA0F63F8F
:1003B0001400001010000010FC3F00000C000010A2
:1003C00000C00040C046C04610B5A0238021DB0518
:1003D00009025A58802002435A50064A9C5820432A
:1003E00098505C58082004435C5099580843985032
:1003F00010BDC046FC3F000070B5194B8021DA6F7C
:1004000002260A43DA67174B03211A6E164C324351
:100410001A665A6E154D32435A669A6E0A439A66A8
:10042000636F0722134363672B680A21636228689E
:1004300000F014FAA06128680A2100F00FFAE061C8
:1004400028680A2100F00AFA206262698023DB0032
:10045000134363610A23E36001232661636070BD77
:10046000048004400040044000C000400000001030
:10047000064B074A5843074BC018074B18601968CA
:1004800051621B685B0893617047C0463CF6FFFFF2
:1004900000C00040E8FD00000000001000B5124B55
:1004A0001A68002A04D1114A11499161D16111627F
:1004B0001A6801321A601B68182B02D10C4A0B4BC8
:1004C0009A61094B1A68302A02D10949074AD16159
:1004D0001A68482A02D10649044A11621A68602A39
:1004E00001D100221A6000BD1800001000C00040B9
:1004F000E8FD0000034A00239361D3611362024ABE
:100500001360704700C000401800001070B500F084
:1005100059F93F4BFA211868890000F09FF93D4BCB
:10052000421E9A420ED83C4B3C4A02385860106A30
:10053000C0210002000A09060143116200229A60EC
:1005400007221A60FFF740FFFFF756FF344800F01C
:10055000C1F8344D344B1B68002BFBD053E0334EB5
:10056000062373602B78F82B2BD002D8902B40D128
:1005700004E0FA2B13D0FC2B3BD12CE02368022B98
:100580003FD96B78281C2B70012100F009F92878DD
:10059000FFF76EFF6B782B702368033B0FE0244B53
:1005A000A022D205D15808204140D150281C012159
:1005B00000F0F6F81F4B00221A602368013B23600D
:1005C0001FE0FFF76BFF1A4BA022D205D15808207D
:1005D0004140D15008E0164BA022D205D158082046
:1005E0008143D150FFF786FF281C012100F0D8F885
:1005F000E3E7281C012100F0D3F80B4B1A68013AFD
:100600001A6007237360084C2368002BA2D0A6E76A
:1006100008000010FFFFFF0010E000E000ED00E028
:10062000127A0000200000101C0000100080004022
:10063000FC3F00001800001010B5214B9A6812070B
:10064000520F032A17D15A699E21D2B2114003D00A
:100650001C490A601B6831E0D0072FD51A4A106880
:100660001C681A4BE4B21C54013010601368402B14
:1006700024D1116022E0022A0DD1134A11681868B2
:10068000124BC0B25854013111601368402B15D180
:100690000023136012E0062A06D10A4B8022196853
:1006A00052000A431A6009E0012A07D15969202340
:1006B0001940074B01D01A7000E0197010BDC046F8
:1006C00000800040600000101C000010200000109E
:1006D0000400001070B5274A01231370264A002138
:1006E0001160264A80218903D167254A07251168B0
:1006F000061CA94311601168224C19431160224A5B
:100700001168A94311601168194311601F4A8021C3
:10071000D06F49010143D1671D4A13608323E36011
:1007200011681C4B1C4A9B6F1068584300F096F8E8
:10073000311C000900F092F8030A6360C0B2032381
:100740002060E360A5606369602362691A40602AE3
:10075000FBD101E0116801E00A4A012361691942F5
:10076000F8D10E4B802292031A60064B05225A6084
:1007700070BDC046040000101C00001004E100E041
:10078000A440044000800040A8400440048004408D
:1007900098800440008004400800001000E100E060
:1007A00030B5074A202307E054691C42FCD0057885
:1007B000034C0130256001390029F5D130BDC04618
:1007C0000080004010B51D4B8E22920099582020C9
:1007D0008143995000221A62C822C046013A002A79
:1007E000FBD101211A6459645A645964586C134A44
:1007F0000842FBD0232191608E218900505880242B
:10080000A04350500120DC680C4A01210442FAD078
:10081000032010670020516750675167586F01220D
:100820000842FBD0054B06499A67064BD967064B31
:100830001A60064B1A60064B1A6010BD0080044017
:100840005F000100048004409480044098800440CC
:100850009C80044008B5FFF759FE08BD002931D03F
:100860000122D207030901E0090112099942FBD9CB
:10087000430801E0490052089942FBD900E04908C9
:10088000401A07D35241FAD301461046704749082F
:100890004018F7D29218FAD3401801461046704714
:1008A000CB0F00D04942021000D54042534008B55A
:1008B000FFF7D4FF0CBC521000D34042002A00D5F1
:1008C00049421847F446002000F001F8604770479D
:1008D000F0B51D1C031C281C4D00141C6D0D87B0A9
:1008E0000E1C221C002D6AD0514CA54267D041003D
:1008F000490D002963D0A14261D04E4C071C7740BE
:100900002D196D1AF402590D059780270C433F06E7
:10091000510DC0020843391CDE0221430743331C3A
:100920000C1CD0028F420AD801D1B04207D8CB07A5
:1009300074081E1C26434A08331C141C0135FE078C
:10094000410831437A08352000267600A24206D8B5
:1009500001D1994203D801275B1A94413E43DF0F2E
:10096000BC46670001975F00019B039767461F43E2
:100970003C1C039B471E212802D10296381CE4E749
:10098000381EE2D1A24208D801D1994205D8029C72
:10099000013673427341E4180294059F264AFB0F07
:1009A000DB07954205D82D05029AEB189918301CE3
:1009B00034E0002D01DB214A1343191C27E02049B4
:1009C00072008A4228D843008B4225D8041C344345
:1009D0006400640D6405002C02D1124910480FE038
:1009E0004640540DF60F6405F607002C01D1311C6A
:1009F00006E05C0D6405002C04D1104B191C31433A
:100A0000201C0BE08B4204D00C4B191C31430020FE
:100A100004E0311C9A42FAD10348044907B0F0BD02
:100A2000000000000000F87F000000000000F87FD8
:100A3000FF070000FD030000FD0700000000F07F3D
:100A40000000E0FFC046C04610B50A0D0C1C0A4964
:100A50008A1AFF2A07D8E302400D184380231B0699
:100A60001843D04007E0054A8020A318C0059842EB
:100A700080414042013810BD1E040000000010C03B
:100A800010B5002802D1041C031C29E0030C002B24
:100A900001D1000402E080235B04C918030E002B7F
:100AA00001D1000202E080231B04C918030F002BB0
:100AB00001D1000102E08023DB03C918830F002B62
:100AC00001D1800002E080239B03C918002801DBCC
:100AD000400002E080235B03C918C212541843058A
:100AE000181C211C10BD08B58021C905FFF7C8FFDF
:040AF00008BDFFFF3F
:0C0AF400FFFF000001000000006CDC02AD
:040000030000010DEB
:00000001FF
